{"abi":[{"type":"constructor","inputs":[{"name":"_token","type":"address","internalType":"address"},{"name":"_beefy","type":"address","internalType":"address"},{"name":"_recipient","type":"address","internalType":"address"}],"stateMutability":"nonpayable"},{"type":"function","name":"balanceOf","inputs":[{"name":"","type":"address","internalType":"address"}],"outputs":[{"name":"","type":"uint256","internalType":"uint256"}],"stateMutability":"view"},{"type":"function","name":"baseToShares","inputs":[{"name":"_shares","type":"uint256","internalType":"uint256"}],"outputs":[{"name":"","type":"uint256","internalType":"uint256"}],"stateMutability":"view"},{"type":"function","name":"beefy","inputs":[],"outputs":[{"name":"","type":"address","internalType":"contract IBeefy"}],"stateMutability":"view"},{"type":"function","name":"deposit","inputs":[{"name":"_amount","type":"uint256","internalType":"uint256"}],"outputs":[],"stateMutability":"nonpayable"},{"type":"function","name":"harvest","inputs":[],"outputs":[],"stateMutability":"nonpayable"},{"type":"function","name":"lastPricePerShare","inputs":[],"outputs":[{"name":"","type":"uint256","internalType":"uint256"}],"stateMutability":"view"},{"type":"function","name":"token","inputs":[],"outputs":[{"name":"","type":"address","internalType":"contract IERC20"}],"stateMutability":"view"},{"type":"function","name":"totalSupply","inputs":[],"outputs":[{"name":"","type":"uint256","internalType":"uint256"}],"stateMutability":"view"},{"type":"function","name":"vaultBalance","inputs":[],"outputs":[{"name":"","type":"uint256","internalType":"uint256"}],"stateMutability":"view"},{"type":"function","name":"withdraw","inputs":[{"name":"_shares","type":"uint256","internalType":"uint256"}],"outputs":[],"stateMutability":"nonpayable"}],"bytecode":{"object":"0x60a060405234801561001057600080fd5b50604051610d8b380380610d8b83398101604081905261002f916100f9565b6001600160a01b038381166080819052600280546001600160a01b03199081168685169081179092556004805490911693851693909317835560405163095ea7b360e01b81529283015260001960248301529063095ea7b3906044016020604051808303816000875af11580156100aa573d6000803e3d6000fd5b505050506040513d601f19601f820116820180604052508101906100ce919061013c565b50506000600355506101659050565b80516001600160a01b03811681146100f457600080fd5b919050565b60008060006060848603121561010e57600080fd5b610117846100dd565b9250610125602085016100dd565b9150610133604085016100dd565b90509250925092565b60006020828403121561014e57600080fd5b8151801515811461015e57600080fd5b9392505050565b608051610bd36101b8600039600081816101630152818161028901528181610353015281816103e801528181610478015281816105990152818161062b015281816106dc01526107830152610bd36000f3fe608060405234801561001057600080fd5b506004361061009e5760003560e01c8063ac9dc9e811610066578063ac9dc9e814610104578063b6b55f251461010d578063bf4ab86914610120578063f9efd8041461014b578063fc0c546a1461015e57600080fd5b80630bf6cc08146100a357806318160ddd146100be5780632e1a7d4d146100c75780634641257d146100dc57806370a08231146100e4575b600080fd5b6100ab610185565b6040519081526020015b60405180910390f35b6100ab60005481565b6100da6100d5366004610a9e565b61032a565b005b6100da610571565b6100ab6100f2366004610ab7565b60016020526000908152604090205481565b6100ab60035481565b6100da61011b366004610a9e565b610757565b600254610133906001600160a01b031681565b6040516001600160a01b0390911681526020016100b5565b6100ab610159366004610a9e565b6108ad565b6101337f000000000000000000000000000000000000000000000000000000000000000081565b6002546040516370a0823160e01b815230600482015260009182916001600160a01b03909116906370a0823190602401602060405180830381865afa1580156101d2573d6000803e3d6000fd5b505050506040513d601f19601f820116820180604052508101906101f69190610ae7565b90506000600260009054906101000a90046001600160a01b03166001600160a01b03166377c7b8fc6040518163ffffffff1660e01b8152600401602060405180830381865afa15801561024d573d6000803e3d6000fd5b505050506040513d601f19601f820116820180604052508101906102719190610ae7565b6040516370a0823160e01b81523060048201529091507f00000000000000000000000000000000000000000000000000000000000000006001600160a01b0316906370a0823190602401602060405180830381865afa1580156102d8573d6000803e3d6000fd5b505050506040513d601f19601f820116820180604052508101906102fc9190610ae7565b670de0b6b3a764000061030f8385610b16565b6103199190610b33565b6103239190610b55565b9250505090565b610334338261095f565b61033c6109a6565b6040516370a0823160e01b815230600482015281907f00000000000000000000000000000000000000000000000000000000000000006001600160a01b0316906370a0823190602401602060405180830381865afa1580156103a2573d6000803e3d6000fd5b505050506040513d601f19601f820116820180604052508101906103c69190610ae7565b11156104635760405163a9059cbb60e01b8152336004820152602481018290527f00000000000000000000000000000000000000000000000000000000000000006001600160a01b03169063a9059cbb906044016020604051808303816000875af1158015610439573d6000803e3d6000fd5b505050506040513d601f19601f8201168201806040525081019061045d9190610b68565b50610566565b6040516370a0823160e01b81523060048201527f00000000000000000000000000000000000000000000000000000000000000006001600160a01b03169063a9059cbb90339083906370a0823190602401602060405180830381865afa1580156104d1573d6000803e3d6000fd5b505050506040513d601f19601f820116820180604052508101906104f59190610ae7565b6040516001600160e01b031960e085901b1681526001600160a01b03909216600483015260248201526044016020604051808303816000875af1158015610540573d6000803e3d6000fd5b505050506040513d601f19601f820116820180604052508101906105649190610b68565b505b61056e610a10565b50565b60005415610755576105816109a6565b6000546040516370a0823160e01b81523060048201527f00000000000000000000000000000000000000000000000000000000000000006001600160a01b0316906370a0823190602401602060405180830381865afa1580156105e8573d6000803e3d6000fd5b505050506040513d601f19601f8201168201806040525081019061060c9190610ae7565b111561074d57600080546040516370a0823160e01b81523060048201527f00000000000000000000000000000000000000000000000000000000000000006001600160a01b0316906370a0823190602401602060405180830381865afa15801561067a573d6000803e3d6000fd5b505050506040513d601f19601f8201168201806040525081019061069e9190610ae7565b6106a89190610b8a565b9050801561074b576004805460405163a9059cbb60e01b81526001600160a01b0391821692810192909252602482018390527f0000000000000000000000000000000000000000000000000000000000000000169063a9059cbb906044016020604051808303816000875af1158015610725573d6000803e3d6000fd5b505050506040513d601f19601f820116820180604052508101906107499190610b68565b505b505b610755610a10565b565b6107613382610a60565b6040516323b872dd60e01b8152336004820152306024820152604481018290527f00000000000000000000000000000000000000000000000000000000000000006001600160a01b0316906323b872dd906064016020604051808303816000875af11580156107d4573d6000803e3d6000fd5b505050506040513d601f19601f820116820180604052508101906107f89190610b68565b5060025460405163b6b55f2560e01b8152600481018390526001600160a01b039091169063b6b55f2590602401600060405180830381600087803b15801561083f57600080fd5b505af1158015610853573d6000803e3d6000fd5b50505050306001600160a01b0316634641257d6040518163ffffffff1660e01b8152600401600060405180830381600087803b15801561089257600080fd5b505af11580156108a6573d6000803e3d6000fd5b5050505050565b600080600260009054906101000a90046001600160a01b03166001600160a01b03166377c7b8fc6040518163ffffffff1660e01b8152600401602060405180830381865afa158015610903573d6000803e3d6000fd5b505050506040513d601f19601f820116820180604052508101906109279190610ae7565b905060008161093e85670de0b6b3a7640000610b16565b6109489190610b33565b9050610957620186a082610b8a565b949350505050565b806000808282546109709190610b8a565b90915550506001600160a01b0382166000908152600160205260408120805483929061099d908490610b8a565b90915550505050565b600260009054906101000a90046001600160a01b03166001600160a01b031663853828b66040518163ffffffff1660e01b8152600401600060405180830381600087803b1580156109f657600080fd5b505af1158015610a0a573d6000803e3d6000fd5b50505050565b600260009054906101000a90046001600160a01b03166001600160a01b031663de5f62686040518163ffffffff1660e01b8152600401600060405180830381600087803b1580156109f657600080fd5b80600080828254610a719190610b55565b90915550506001600160a01b0382166000908152600160205260408120805483929061099d908490610b55565b600060208284031215610ab057600080fd5b5035919050565b600060208284031215610ac957600080fd5b81356001600160a01b0381168114610ae057600080fd5b9392505050565b600060208284031215610af957600080fd5b5051919050565b634e487b7160e01b600052601160045260246000fd5b8082028115828204841417610b2d57610b2d610b00565b92915050565b600082610b5057634e487b7160e01b600052601260045260246000fd5b500490565b80820180821115610b2d57610b2d610b00565b600060208284031215610b7a57600080fd5b81518015158114610ae057600080fd5b81810381811115610b2d57610b2d610b0056fea2646970667358221220bc2a094802f17547be8848e7c99838f944720d246e7d10ccf318e97dfc129f3864736f6c63430008180033","linkReferences":{}},"methodIdentifiers":{"balanceOf(address)":"70a08231","baseToShares(uint256)":"f9efd804","beefy()":"bf4ab869","deposit(uint256)":"b6b55f25","harvest()":"4641257d","lastPricePerShare()":"ac9dc9e8","token()":"fc0c546a","totalSupply()":"18160ddd","vaultBalance()":"0bf6cc08","withdraw(uint256)":"2e1a7d4d"},"id":22}